{
  "_format": "hh-sol-artifact-1",
  "contractName": "GoodCommitStaking",
  "sourceName": "contracts/GoodCommitStaking.sol",
  "abi": [
    {
      "inputs": [
        {
          "internalType": "address",
          "name": "_gDollarToken",
          "type": "address"
        },
        {
          "internalType": "address",
          "name": "_identityContract",
          "type": "address"
        },
        {
          "internalType": "address",
          "name": "_verifier",
          "type": "address"
        },
        {
          "internalType": "address",
          "name": "_rewardTreasury",
          "type": "address"
        },
        {
          "internalType": "address",
          "name": "_ubiPool",
          "type": "address"
        }
      ],
      "stateMutability": "nonpayable",
      "type": "constructor"
    },
    {
      "inputs": [],
      "name": "EnforcedPause",
      "type": "error"
    },
    {
      "inputs": [],
      "name": "ExpectedPause",
      "type": "error"
    },
    {
      "inputs": [
        {
          "internalType": "address",
          "name": "owner",
          "type": "address"
        }
      ],
      "name": "OwnableInvalidOwner",
      "type": "error"
    },
    {
      "inputs": [
        {
          "internalType": "address",
          "name": "account",
          "type": "address"
        }
      ],
      "name": "OwnableUnauthorizedAccount",
      "type": "error"
    },
    {
      "inputs": [],
      "name": "ReentrancyGuardReentrantCall",
      "type": "error"
    },
    {
      "inputs": [
        {
          "internalType": "address",
          "name": "token",
          "type": "address"
        }
      ],
      "name": "SafeERC20FailedOperation",
      "type": "error"
    },
    {
      "anonymous": false,
      "inputs": [
        {
          "indexed": true,
          "internalType": "address",
          "name": "previousOwner",
          "type": "address"
        },
        {
          "indexed": true,
          "internalType": "address",
          "name": "newOwner",
          "type": "address"
        }
      ],
      "name": "OwnershipTransferred",
      "type": "event"
    },
    {
      "anonymous": false,
      "inputs": [
        {
          "indexed": false,
          "internalType": "address",
          "name": "account",
          "type": "address"
        }
      ],
      "name": "Paused",
      "type": "event"
    },
    {
      "anonymous": false,
      "inputs": [
        {
          "indexed": true,
          "internalType": "address",
          "name": "user",
          "type": "address"
        },
        {
          "indexed": true,
          "internalType": "enum GoodCommitStaking.HabitType",
          "name": "habitType",
          "type": "uint8"
        },
        {
          "indexed": false,
          "internalType": "uint256",
          "name": "gDollarPayout",
          "type": "uint256"
        }
      ],
      "name": "PointsClaimed",
      "type": "event"
    },
    {
      "anonymous": false,
      "inputs": [
        {
          "indexed": true,
          "internalType": "address",
          "name": "user",
          "type": "address"
        },
        {
          "indexed": true,
          "internalType": "enum GoodCommitStaking.HabitType",
          "name": "habitType",
          "type": "uint8"
        },
        {
          "indexed": false,
          "internalType": "uint256",
          "name": "decayedPoints",
          "type": "uint256"
        }
      ],
      "name": "PointsDecayed",
      "type": "event"
    },
    {
      "anonymous": false,
      "inputs": [
        {
          "indexed": true,
          "internalType": "address",
          "name": "user",
          "type": "address"
        },
        {
          "indexed": false,
          "internalType": "uint8",
          "name": "correct",
          "type": "uint8"
        },
        {
          "indexed": false,
          "internalType": "uint8",
          "name": "total",
          "type": "uint8"
        },
        {
          "indexed": false,
          "internalType": "uint256",
          "name": "pointsEarned",
          "type": "uint256"
        }
      ],
      "name": "QuizRecorded",
      "type": "event"
    },
    {
      "anonymous": false,
      "inputs": [
        {
          "indexed": true,
          "internalType": "address",
          "name": "user",
          "type": "address"
        },
        {
          "indexed": true,
          "internalType": "address",
          "name": "gdRoot",
          "type": "address"
        },
        {
          "indexed": false,
          "internalType": "uint256",
          "name": "amount",
          "type": "uint256"
        }
      ],
      "name": "SeedClaimed",
      "type": "event"
    },
    {
      "anonymous": false,
      "inputs": [
        {
          "indexed": true,
          "internalType": "address",
          "name": "user",
          "type": "address"
        },
        {
          "indexed": true,
          "internalType": "enum GoodCommitStaking.HabitType",
          "name": "habitType",
          "type": "uint8"
        },
        {
          "indexed": false,
          "internalType": "string",
          "name": "reason",
          "type": "string"
        },
        {
          "indexed": false,
          "internalType": "uint256",
          "name": "ubiAmount",
          "type": "uint256"
        },
        {
          "indexed": false,
          "internalType": "uint256",
          "name": "treasuryAmount",
          "type": "uint256"
        }
      ],
      "name": "StakeSlashed",
      "type": "event"
    },
    {
      "anonymous": false,
      "inputs": [
        {
          "indexed": true,
          "internalType": "address",
          "name": "user",
          "type": "address"
        },
        {
          "indexed": true,
          "internalType": "enum GoodCommitStaking.HabitType",
          "name": "habitType",
          "type": "uint8"
        },
        {
          "indexed": false,
          "internalType": "uint256",
          "name": "amount",
          "type": "uint256"
        },
        {
          "indexed": false,
          "internalType": "uint256",
          "name": "durationDays",
          "type": "uint256"
        }
      ],
      "name": "Staked",
      "type": "event"
    },
    {
      "anonymous": false,
      "inputs": [
        {
          "indexed": true,
          "internalType": "address",
          "name": "oldTreasury",
          "type": "address"
        },
        {
          "indexed": true,
          "internalType": "address",
          "name": "newTreasury",
          "type": "address"
        }
      ],
      "name": "TreasuryUpdated",
      "type": "event"
    },
    {
      "anonymous": false,
      "inputs": [
        {
          "indexed": true,
          "internalType": "address",
          "name": "oldPool",
          "type": "address"
        },
        {
          "indexed": true,
          "internalType": "address",
          "name": "newPool",
          "type": "address"
        }
      ],
      "name": "UbiPoolUpdated",
      "type": "event"
    },
    {
      "anonymous": false,
      "inputs": [
        {
          "indexed": false,
          "internalType": "address",
          "name": "account",
          "type": "address"
        }
      ],
      "name": "Unpaused",
      "type": "event"
    },
    {
      "anonymous": false,
      "inputs": [
        {
          "indexed": true,
          "internalType": "address",
          "name": "user",
          "type": "address"
        },
        {
          "indexed": true,
          "internalType": "enum GoodCommitStaking.HabitType",
          "name": "habitType",
          "type": "uint8"
        },
        {
          "indexed": false,
          "internalType": "uint256",
          "name": "amount",
          "type": "uint256"
        }
      ],
      "name": "Unstaked",
      "type": "event"
    },
    {
      "anonymous": false,
      "inputs": [
        {
          "indexed": true,
          "internalType": "address",
          "name": "oldVerifier",
          "type": "address"
        },
        {
          "indexed": true,
          "internalType": "address",
          "name": "newVerifier",
          "type": "address"
        }
      ],
      "name": "VerifierUpdated",
      "type": "event"
    },
    {
      "anonymous": false,
      "inputs": [
        {
          "indexed": true,
          "internalType": "address",
          "name": "user",
          "type": "address"
        },
        {
          "indexed": false,
          "internalType": "uint256",
          "name": "points",
          "type": "uint256"
        },
        {
          "indexed": false,
          "internalType": "string",
          "name": "exerciseType",
          "type": "string"
        }
      ],
      "name": "WorkoutRecorded",
      "type": "event"
    },
    {
      "inputs": [],
      "name": "BPS_DENOMINATOR",
      "outputs": [
        {
          "internalType": "uint256",
          "name": "",
          "type": "uint256"
        }
      ],
      "stateMutability": "view",
      "type": "function"
    },
    {
      "inputs": [],
      "name": "DECAY_RATE_BPS",
      "outputs": [
        {
          "internalType": "uint256",
          "name": "",
          "type": "uint256"
        }
      ],
      "stateMutability": "view",
      "type": "function"
    },
    {
      "inputs": [],
      "name": "FULL_STAKE_BONUS_BPS",
      "outputs": [
        {
          "internalType": "uint256",
          "name": "",
          "type": "uint256"
        }
      ],
      "stateMutability": "view",
      "type": "function"
    },
    {
      "inputs": [],
      "name": "INACTIVITY_THRESHOLD",
      "outputs": [
        {
          "internalType": "uint256",
          "name": "",
          "type": "uint256"
        }
      ],
      "stateMutability": "view",
      "type": "function"
    },
    {
      "inputs": [],
      "name": "PARTIAL_STAKE_BONUS_BPS",
      "outputs": [
        {
          "internalType": "uint256",
          "name": "",
          "type": "uint256"
        }
      ],
      "stateMutability": "view",
      "type": "function"
    },
    {
      "inputs": [],
      "name": "POINTS_PER_G_DOLLAR",
      "outputs": [
        {
          "internalType": "uint256",
          "name": "",
          "type": "uint256"
        }
      ],
      "stateMutability": "view",
      "type": "function"
    },
    {
      "inputs": [],
      "name": "SEED_AMOUNT",
      "outputs": [
        {
          "internalType": "uint256",
          "name": "",
          "type": "uint256"
        }
      ],
      "stateMutability": "view",
      "type": "function"
    },
    {
      "inputs": [],
      "name": "SLASH_TREASURY_BPS",
      "outputs": [
        {
          "internalType": "uint256",
          "name": "",
          "type": "uint256"
        }
      ],
      "stateMutability": "view",
      "type": "function"
    },
    {
      "inputs": [],
      "name": "SLASH_UBI_BPS",
      "outputs": [
        {
          "internalType": "uint256",
          "name": "",
          "type": "uint256"
        }
      ],
      "stateMutability": "view",
      "type": "function"
    },
    {
      "inputs": [],
      "name": "STAGE_FRUITING",
      "outputs": [
        {
          "internalType": "uint256",
          "name": "",
          "type": "uint256"
        }
      ],
      "stateMutability": "view",
      "type": "function"
    },
    {
      "inputs": [],
      "name": "STAGE_GROWING",
      "outputs": [
        {
          "internalType": "uint256",
          "name": "",
          "type": "uint256"
        }
      ],
      "stateMutability": "view",
      "type": "function"
    },
    {
      "inputs": [],
      "name": "STAGE_MATURE",
      "outputs": [
        {
          "internalType": "uint256",
          "name": "",
          "type": "uint256"
        }
      ],
      "stateMutability": "view",
      "type": "function"
    },
    {
      "inputs": [],
      "name": "STAGE_SEED",
      "outputs": [
        {
          "internalType": "uint256",
          "name": "",
          "type": "uint256"
        }
      ],
      "stateMutability": "view",
      "type": "function"
    },
    {
      "inputs": [],
      "name": "STAGE_SPROUT",
      "outputs": [
        {
          "internalType": "uint256",
          "name": "",
          "type": "uint256"
        }
      ],
      "stateMutability": "view",
      "type": "function"
    },
    {
      "inputs": [
        {
          "internalType": "address",
          "name": "user",
          "type": "address"
        }
      ],
      "name": "checkSeedEligibility",
      "outputs": [
        {
          "internalType": "bool",
          "name": "eligible",
          "type": "bool"
        },
        {
          "internalType": "address",
          "name": "gdRoot",
          "type": "address"
        },
        {
          "internalType": "string",
          "name": "reason",
          "type": "string"
        }
      ],
      "stateMutability": "view",
      "type": "function"
    },
    {
      "inputs": [],
      "name": "claimInitialSeed",
      "outputs": [],
      "stateMutability": "nonpayable",
      "type": "function"
    },
    {
      "inputs": [
        {
          "internalType": "enum GoodCommitStaking.HabitType",
          "name": "habitType",
          "type": "uint8"
        }
      ],
      "name": "claimPoints",
      "outputs": [],
      "stateMutability": "nonpayable",
      "type": "function"
    },
    {
      "inputs": [],
      "name": "contractGDollarBalance",
      "outputs": [
        {
          "internalType": "uint256",
          "name": "",
          "type": "uint256"
        }
      ],
      "stateMutability": "view",
      "type": "function"
    },
    {
      "inputs": [],
      "name": "decayRewardPool",
      "outputs": [
        {
          "internalType": "uint256",
          "name": "",
          "type": "uint256"
        }
      ],
      "stateMutability": "view",
      "type": "function"
    },
    {
      "inputs": [],
      "name": "emergencyWithdraw",
      "outputs": [],
      "stateMutability": "nonpayable",
      "type": "function"
    },
    {
      "inputs": [
        {
          "internalType": "uint256",
          "name": "amount",
          "type": "uint256"
        }
      ],
      "name": "fundContract",
      "outputs": [],
      "stateMutability": "nonpayable",
      "type": "function"
    },
    {
      "inputs": [],
      "name": "gDollarToken",
      "outputs": [
        {
          "internalType": "contract IERC20",
          "name": "",
          "type": "address"
        }
      ],
      "stateMutability": "view",
      "type": "function"
    },
    {
      "inputs": [
        {
          "internalType": "address",
          "name": "user",
          "type": "address"
        },
        {
          "internalType": "enum GoodCommitStaking.HabitType",
          "name": "habitType",
          "type": "uint8"
        }
      ],
      "name": "getHabitStake",
      "outputs": [
        {
          "internalType": "uint256",
          "name": "stakedAmount",
          "type": "uint256"
        },
        {
          "internalType": "uint256",
          "name": "points",
          "type": "uint256"
        },
        {
          "internalType": "uint256",
          "name": "lastActivityTime",
          "type": "uint256"
        },
        {
          "internalType": "uint256",
          "name": "commitmentEnd",
          "type": "uint256"
        },
        {
          "internalType": "bool",
          "name": "active",
          "type": "bool"
        }
      ],
      "stateMutability": "view",
      "type": "function"
    },
    {
      "inputs": [
        {
          "internalType": "address",
          "name": "user",
          "type": "address"
        },
        {
          "internalType": "enum GoodCommitStaking.HabitType",
          "name": "habitType",
          "type": "uint8"
        }
      ],
      "name": "getPlantStage",
      "outputs": [
        {
          "internalType": "enum GoodCommitStaking.PlantStage",
          "name": "",
          "type": "uint8"
        }
      ],
      "stateMutability": "view",
      "type": "function"
    },
    {
      "inputs": [
        {
          "internalType": "address",
          "name": "user",
          "type": "address"
        }
      ],
      "name": "getUserProfile",
      "outputs": [
        {
          "internalType": "bool",
          "name": "initialized",
          "type": "bool"
        },
        {
          "internalType": "bool",
          "name": "hasClaimedSeed",
          "type": "bool"
        },
        {
          "internalType": "uint256",
          "name": "totalPointsEarned",
          "type": "uint256"
        },
        {
          "internalType": "uint256",
          "name": "totalWorkoutsCompleted",
          "type": "uint256"
        },
        {
          "internalType": "uint256",
          "name": "totalQuizzesCompleted",
          "type": "uint256"
        },
        {
          "internalType": "uint256",
          "name": "totalClaimed",
          "type": "uint256"
        },
        {
          "internalType": "uint256",
          "name": "totalStaked",
          "type": "uint256"
        }
      ],
      "stateMutability": "view",
      "type": "function"
    },
    {
      "inputs": [
        {
          "internalType": "address",
          "name": "",
          "type": "address"
        },
        {
          "internalType": "enum GoodCommitStaking.HabitType",
          "name": "",
          "type": "uint8"
        }
      ],
      "name": "habitStakes",
      "outputs": [
        {
          "internalType": "uint256",
          "name": "stakedAmount",
          "type": "uint256"
        },
        {
          "internalType": "uint256",
          "name": "points",
          "type": "uint256"
        },
        {
          "internalType": "uint256",
          "name": "lastActivityTime",
          "type": "uint256"
        },
        {
          "internalType": "uint256",
          "name": "commitmentEnd",
          "type": "uint256"
        },
        {
          "internalType": "bool",
          "name": "active",
          "type": "bool"
        }
      ],
      "stateMutability": "view",
      "type": "function"
    },
    {
      "inputs": [],
      "name": "identityContract",
      "outputs": [
        {
          "internalType": "contract IIdentity",
          "name": "",
          "type": "address"
        }
      ],
      "stateMutability": "view",
      "type": "function"
    },
    {
      "inputs": [
        {
          "internalType": "address",
          "name": "user",
          "type": "address"
        },
        {
          "internalType": "enum GoodCommitStaking.HabitType",
          "name": "habitType",
          "type": "uint8"
        }
      ],
      "name": "isInactive",
      "outputs": [
        {
          "internalType": "bool",
          "name": "",
          "type": "bool"
        }
      ],
      "stateMutability": "view",
      "type": "function"
    },
    {
      "inputs": [],
      "name": "owner",
      "outputs": [
        {
          "internalType": "address",
          "name": "",
          "type": "address"
        }
      ],
      "stateMutability": "view",
      "type": "function"
    },
    {
      "inputs": [],
      "name": "pause",
      "outputs": [],
      "stateMutability": "nonpayable",
      "type": "function"
    },
    {
      "inputs": [],
      "name": "paused",
      "outputs": [
        {
          "internalType": "bool",
          "name": "",
          "type": "bool"
        }
      ],
      "stateMutability": "view",
      "type": "function"
    },
    {
      "inputs": [
        {
          "internalType": "address",
          "name": "user",
          "type": "address"
        },
        {
          "internalType": "enum GoodCommitStaking.HabitType",
          "name": "habitType",
          "type": "uint8"
        },
        {
          "internalType": "uint8",
          "name": "correctAnswers",
          "type": "uint8"
        },
        {
          "internalType": "uint8",
          "name": "totalQuestions",
          "type": "uint8"
        },
        {
          "internalType": "uint256",
          "name": "pointsEarned",
          "type": "uint256"
        },
        {
          "internalType": "int256",
          "name": "pointsPenalty",
          "type": "int256"
        }
      ],
      "name": "recordQuiz",
      "outputs": [],
      "stateMutability": "nonpayable",
      "type": "function"
    },
    {
      "inputs": [
        {
          "internalType": "address",
          "name": "user",
          "type": "address"
        },
        {
          "internalType": "enum GoodCommitStaking.HabitType",
          "name": "habitType",
          "type": "uint8"
        },
        {
          "internalType": "uint256",
          "name": "duration",
          "type": "uint256"
        },
        {
          "internalType": "uint256",
          "name": "pointsEarned",
          "type": "uint256"
        },
        {
          "internalType": "string",
          "name": "exerciseType",
          "type": "string"
        }
      ],
      "name": "recordWorkout",
      "outputs": [],
      "stateMutability": "nonpayable",
      "type": "function"
    },
    {
      "inputs": [],
      "name": "renounceOwnership",
      "outputs": [],
      "stateMutability": "nonpayable",
      "type": "function"
    },
    {
      "inputs": [],
      "name": "rewardTreasury",
      "outputs": [
        {
          "internalType": "address",
          "name": "",
          "type": "address"
        }
      ],
      "stateMutability": "view",
      "type": "function"
    },
    {
      "inputs": [
        {
          "internalType": "address",
          "name": "",
          "type": "address"
        }
      ],
      "name": "rootHasClaimed",
      "outputs": [
        {
          "internalType": "bool",
          "name": "",
          "type": "bool"
        }
      ],
      "stateMutability": "view",
      "type": "function"
    },
    {
      "inputs": [
        {
          "internalType": "address",
          "name": "_treasury",
          "type": "address"
        }
      ],
      "name": "setRewardTreasury",
      "outputs": [],
      "stateMutability": "nonpayable",
      "type": "function"
    },
    {
      "inputs": [
        {
          "internalType": "address",
          "name": "_ubiPool",
          "type": "address"
        }
      ],
      "name": "setUbiPool",
      "outputs": [],
      "stateMutability": "nonpayable",
      "type": "function"
    },
    {
      "inputs": [
        {
          "internalType": "address",
          "name": "_verifier",
          "type": "address"
        }
      ],
      "name": "setVerifier",
      "outputs": [],
      "stateMutability": "nonpayable",
      "type": "function"
    },
    {
      "inputs": [
        {
          "internalType": "address",
          "name": "user",
          "type": "address"
        },
        {
          "internalType": "enum GoodCommitStaking.HabitType",
          "name": "habitType",
          "type": "uint8"
        },
        {
          "internalType": "string",
          "name": "reason",
          "type": "string"
        }
      ],
      "name": "slashStake",
      "outputs": [],
      "stateMutability": "nonpayable",
      "type": "function"
    },
    {
      "inputs": [
        {
          "internalType": "enum GoodCommitStaking.HabitType",
          "name": "habitType",
          "type": "uint8"
        },
        {
          "internalType": "uint256",
          "name": "amount",
          "type": "uint256"
        },
        {
          "internalType": "uint256",
          "name": "durationDays",
          "type": "uint256"
        }
      ],
      "name": "stakeGDollar",
      "outputs": [],
      "stateMutability": "nonpayable",
      "type": "function"
    },
    {
      "inputs": [
        {
          "internalType": "address",
          "name": "newOwner",
          "type": "address"
        }
      ],
      "name": "transferOwnership",
      "outputs": [],
      "stateMutability": "nonpayable",
      "type": "function"
    },
    {
      "inputs": [],
      "name": "ubiPool",
      "outputs": [
        {
          "internalType": "address",
          "name": "",
          "type": "address"
        }
      ],
      "stateMutability": "view",
      "type": "function"
    },
    {
      "inputs": [],
      "name": "unpause",
      "outputs": [],
      "stateMutability": "nonpayable",
      "type": "function"
    },
    {
      "inputs": [
        {
          "internalType": "enum GoodCommitStaking.HabitType",
          "name": "habitType",
          "type": "uint8"
        }
      ],
      "name": "unstakeTokens",
      "outputs": [],
      "stateMutability": "nonpayable",
      "type": "function"
    },
    {
      "inputs": [
        {
          "internalType": "address",
          "name": "",
          "type": "address"
        }
      ],
      "name": "userProfiles",
      "outputs": [
        {
          "internalType": "bool",
          "name": "initialized",
          "type": "bool"
        },
        {
          "internalType": "bool",
          "name": "hasClaimedSeed",
          "type": "bool"
        },
        {
          "internalType": "uint256",
          "name": "totalPointsEarned",
          "type": "uint256"
        },
        {
          "internalType": "uint256",
          "name": "totalWorkoutsCompleted",
          "type": "uint256"
        },
        {
          "internalType": "uint256",
          "name": "totalQuizzesCompleted",
          "type": "uint256"
        },
        {
          "internalType": "uint256",
          "name": "totalClaimed",
          "type": "uint256"
        },
        {
          "internalType": "uint256",
          "name": "totalStaked",
          "type": "uint256"
        }
      ],
      "stateMutability": "view",
      "type": "function"
    },
    {
      "inputs": [],
      "name": "verifier",
      "outputs": [
        {
          "internalType": "address",
          "name": "",
          "type": "address"
        }
      ],
      "stateMutability": "view",
      "type": "function"
    }
  ],
  "bytecode": "0x60c06040523480156200001157600080fd5b5060405162002dbb38038062002dbb8339810160408190526200003491620002ab565b60017f9b779b17422d0df92223018b32b4d1fa46e071723d6817e2486d003becc55f005533806200008057604051631e4fbdf760e01b8152600060048201526024015b60405180910390fd5b6200008b816200023e565b506001600160a01b038516620000d15760405162461bcd60e51b815260206004820152600a6024820152692d32b937903a37b5b2b760b11b604482015260640162000077565b6001600160a01b038416620001195760405162461bcd60e51b815260206004820152600d60248201526c5a65726f206964656e7469747960981b604482015260640162000077565b6001600160a01b038316620001615760405162461bcd60e51b815260206004820152600d60248201526c2d32b937903b32b934b334b2b960991b604482015260640162000077565b6001600160a01b038216620001a95760405162461bcd60e51b815260206004820152600d60248201526c5a65726f20747265617375727960981b604482015260640162000077565b6001600160a01b038116620001f15760405162461bcd60e51b815260206004820152600d60248201526c16995c9bc8155092481c1bdbdb609a1b604482015260640162000077565b6001600160a01b0394851660805292841660a052600180549285166001600160a01b031993841617905560028054918516918316919091179055600380549290931691161790556200031b565b600080546001600160a01b038381166001600160a01b0319831681178455604051919092169283917f8be0079c531659141344cd1fd0a4f28419497f9722a3daafe3b4186f6b6457e09190a35050565b80516001600160a01b0381168114620002a657600080fd5b919050565b600080600080600060a08688031215620002c457600080fd5b620002cf866200028e565b9450620002df602087016200028e565b9350620002ef604087016200028e565b9250620002ff606087016200028e565b91506200030f608087016200028e565b90509295509295909350565b60805160a051612a11620003aa600039600081816104d90152818161129c015261179a0152600081816106b101528181610a7b01528181610ce401528181610e080152818161102901528181611115015281816114b4015281816115c60152818161190c01528181611bfb01528181611c9b01528181611d3501528181611ed60152611f160152612a116000f3fe608060405234801561001057600080fd5b50600436106102955760003560e01c80638688e9cb11610167578063b4a220f1116100ce578063e0ebe31111610087578063e0ebe3111461066c578063e1a4521814610674578063f25a222c1461067d578063f2fde38b14610690578063f73772b5146106a3578063faabcabc146106ac57600080fd5b8063b4a220f11461062e578063be6e6df114610636578063c7c934a114610649578063d35376a41461065c578063d9c652e614610569578063db2e21bc1461066457600080fd5b8063a06f7da711610120578063a06f7da7146105c9578063a37ca100146105dc578063a493415f146105ef578063a5e34f5214610602578063aa4103e214610624578063b301def6146104fb57600080fd5b80638688e9cb1461053e57806389f82846146105465780638da5cb5b1461054f578063966215971461056057806396e8f48114610569578063987ee1561461057257600080fd5b80633519a2f81161020b57806367031bae116101c457806367031bae146104d45780636838778c146104fb578063715018a6146105035780637609d1401461050b5780638456cb591461052e5780638643eac31461053657600080fd5b80633519a2f8146104625780633f4ba83a146104755780634c7bbd621461047d57806352c82de1146104905780635437988d146104a35780635c975abb146104b657600080fd5b80631d4e84191161025d5780631d4e841914610361578063205b95bb1461036a57806326bf8aed1461037d5780632b7ac3f31461039d578063303d10b2146103c8578063332d56d7146103db57600080fd5b80630548fb2f1461029a5780630a59d66b146102bc578063105eac0d146102c45780631355366a146102d95780631aaeac441461034e575b600080fd5b6102a9678ac7230489e8000081565b6040519081526020015b60405180910390f35b6102a9601e81565b6102d76102d2366004612467565b6106d3565b005b6103246102e736600461249f565b6006602090815260009283526040808420909152908252902080546001820154600283015460038401546004909401549293919290919060ff1685565b6040805195865260208601949094529284019190915260608301521515608082015260a0016102b3565b6102d761035c3660046124e5565b610766565b6102a960045481565b6102d761037836600461254d565b61096a565b61039061038b36600461249f565b610ba6565b6040516102b39190612596565b6001546103b0906001600160a01b031681565b6040516001600160a01b0390911681526020016102b3565b6103246103d636600461249f565b610c4c565b61042b6103e9366004612467565b600560208190526000918252604090912080546001820154600283015460038401546004850154949095015460ff808516966101009095041694929391929087565b6040805197151588529515156020880152948601939093526060850191909152608084015260a083015260c082015260e0016102b3565b6102d76104703660046125be565b610ccf565b6102d7610d0f565b6102d761048b3660046125d7565b610d21565b6102d761049e3660046125d7565b610e8f565b6102d76104b1366004612467565b6111c5565b600054600160a01b900460ff165b60405190151581526020016102b3565b6103b07f000000000000000000000000000000000000000000000000000000000000000081565b6102a9600a81565b6102d761124f565b6104c4610519366004612467565b60076020526000908152604090205460ff1681565b6102d7611261565b6102d7611271565b6102a9603c81565b6102a961177081565b6000546001600160a01b03166103b0565b6102a96103e881565b6102a9610fa081565b61042b610580366004612467565b6001600160a01b0316600090815260056020819052604090912080546001820154600283015460038401546004850154949095015460ff80851697610100909504169592949193565b6003546103b0906001600160a01b031681565b6104c46105ea36600461249f565b611664565b6102d76105fd366004612467565b6116e9565b610615610610366004612467565b611773565b6040516102b3939291906125f2565b6102a96203f48081565b6102a9606481565b6102d76106443660046126a2565b6119ef565b6002546103b0906001600160a01b031681565b6102a9611be3565b6102d7611c73565b6102a9600081565b6102a961271081565b6102d761068b36600461271c565b611d5c565b6102d761069e366004612467565b611fa2565b6102a96101f481565b6103b07f000000000000000000000000000000000000000000000000000000000000000081565b6106db611fdd565b6001600160a01b03811661070a5760405162461bcd60e51b81526004016107019061277f565b60405180910390fd5b6003546040516001600160a01b038084169216907fd2716185cf893e22f84dd46413767b43dc1e86f1c8058e1d4430620d2fdf69cc90600090a3600380546001600160a01b0319166001600160a01b0392909216919091179055565b6001546001600160a01b031633146107905760405162461bcd60e51b8152600401610701906127a5565b61079861200a565b60008360ff16116107eb5760405162461bcd60e51b815260206004820152601a60248201527f476f6f64436f6d6d69743a207a65726f207175657374696f6e730000000000006044820152606401610701565b6001600160a01b03861660009081526006602052604081208187600181111561081657610816612580565b600181111561082757610827612580565b81526020810191909152604001600020600481015490915060ff1661085e5760405162461bcd60e51b8152600401610701906127e7565b6108688787612035565b60008212156108a757600061087c83612834565b9050808260010154116108905760006108a0565b8082600101546108a09190612850565b6001830155505b828160010160008282546108bb9190612863565b90915550504260028201556001600160a01b0387166000908152600560205260408120600181018054919286926108f3908490612863565b909155505060038101805490600061090a83612876565b90915550506040805160ff8089168252871660208201529081018590526001600160a01b038916907f6acffa2e2f48acf9cd64594d19baad14f6acec220c5b8c2bf22035c2b8d836cd906060015b60405180910390a25050505050505050565b6109726121ab565b61097a61200a565b600082116109ca5760405162461bcd60e51b815260206004820152601e60248201527f476f6f64436f6d6d69743a20616d6f756e74206d757374206265203e203000006044820152606401610701565b600181101580156109dd575061016d8111155b610a295760405162461bcd60e51b815260206004820152601f60248201527f476f6f64436f6d6d69743a206475726174696f6e20312d3336352064617973006044820152606401610701565b33600090815260066020526040812081856001811115610a4b57610a4b612580565b6001811115610a5c57610a5c612580565b815260208101919091526040016000209050610aa36001600160a01b037f0000000000000000000000000000000000000000000000000000000000000000163330866121c7565b82816000016000828254610ab79190612863565b9091555050600481015460ff16610ae357600060018083019190915560048201805460ff191690911790555b426002820155610af6826201518061288f565b610b009042612863565b60038201553360009081526005602081905260408220805460ff19166001178155908101805491928692610b35908490612863565b909155508590506001811115610b4d57610b4d612580565b604080518681526020810186905233917f0a79772743d87ba7576fca49d64545ccce7a2369f471f1badf89540cdb09b282910160405180910390a35050610ba1600160008051602061299683398151915255565b505050565b6001600160a01b0382166000908152600660205260408120819081846001811115610bd357610bd3612580565b6001811115610be457610be4612580565b815260200190815260200160002060010154905060648110610c0a576004915050610c46565b603c8110610c1c576003915050610c46565b601e8110610c2e576002915050610c46565b600a8110610c40576001915050610c46565b60009150505b92915050565b6001600160a01b03821660009081526006602052604081208190819081908190819081886001811115610c8157610c81612580565b6001811115610c9257610c92612580565b815260208101919091526040016000208054600182015460028301546003840154600490940154929c919b50995091975060ff1695509350505050565b610cd7611fdd565b610d0c6001600160a01b037f0000000000000000000000000000000000000000000000000000000000000000163330846121c7565b50565b610d17611fdd565b610d1f612203565b565b610d296121ab565b610d3161200a565b33600090815260066020526040812081836001811115610d5357610d53612580565b6001811115610d6457610d64612580565b81526020810191909152604001600020600481015490915060ff16610d9b5760405162461bcd60e51b8152600401610701906127e7565b8054610de95760405162461bcd60e51b815260206004820152601e60248201527f476f6f64436f6d6d69743a206e6f7468696e6720746f20756e7374616b6500006044820152606401610701565b80546000825560048201805460ff19169055610e2f6001600160a01b037f0000000000000000000000000000000000000000000000000000000000000000163383612258565b826001811115610e4157610e41612580565b60405182815233907f9bda9a567fe5ce9bcfb637505de9a1dc9d112a34e25a8524026e3d869f95b4719060200160405180910390a35050610d0c600160008051602061299683398151915255565b610e976121ab565b610e9f61200a565b33600090815260066020526040812081836001811115610ec157610ec1612580565b6001811115610ed257610ed2612580565b81526020810191909152604001600020600481015490915060ff16610f095760405162461bcd60e51b8152600401610701906127e7565b606481600101541015610f6c5760405162461bcd60e51b815260206004820152602560248201527f476f6f64436f6d6d69743a206e656564203130302b20706f696e747320746f20604482015264636c61696d60d81b6064820152608401610701565b8060030154421015610fd45760405162461bcd60e51b815260206004820152602b60248201527f476f6f64436f6d6d69743a20636f6d6d69746d656e7420706572696f64206e6f60448201526a1d08195b991959081e595d60aa1b6064820152608401610701565b610fde3383612035565b60018101546000600a610ff983670de0b6b3a764000061288f565b61100391906128a6565b6000600185015590508015611164576040516370a0823160e01b815230600482015281907f00000000000000000000000000000000000000000000000000000000000000006001600160a01b0316906370a0823190602401602060405180830381865afa158015611078573d6000803e3d6000fd5b505050506040513d601f19601f8201168201806040525081019061109c91906128c8565b10156111085760405162461bcd60e51b815260206004820152603560248201527f476f6f64436f6d6d69743a20696e73756666696369656e7420636f6e747261636044820152741d0818985b185b98d948199bdc881a185c9d995cdd605a1b6064820152608401610701565b61113c6001600160a01b037f0000000000000000000000000000000000000000000000000000000000000000163383612258565b336000908152600560205260408120600401805483929061115e908490612863565b90915550505b83600181111561117657611176612580565b60405182815233907f04114dda3c5bb9b90adad1d74a201365d2b4e47eec7507e61d2fdb6d1bf1665c9060200160405180910390a3505050610d0c600160008051602061299683398151915255565b6111cd611fdd565b6001600160a01b0381166111f35760405162461bcd60e51b81526004016107019061277f565b6001546040516001600160a01b038084169216907f0243549a92b2412f7a3caf7a2e56d65b8821b91345363faa5f57195384065fcc90600090a3600180546001600160a01b0319166001600160a01b0392909216919091179055565b611257611fdd565b610d1f600061228d565b611269611fdd565b610d1f6122dd565b6112796121ab565b61128161200a565b6040516316874da360e11b81523360048201819052906000907f00000000000000000000000000000000000000000000000000000000000000006001600160a01b031690632d0e9b4690602401602060405180830381865afa1580156112eb573d6000803e3d6000fd5b505050506040513d601f19601f8201168201806040525081019061130f91906128e1565b90506001600160a01b0381166113975760405162461bcd60e51b815260206004820152604160248201527f476f6f64436f6d6d69743a2077616c6c6574206e6f7420476f6f64446f6c6c6160448201527f72207665726966696564202d20766973697420676f6f64646f6c6c61722e6f726064820152606760f81b608482015260a401610701565b6001600160a01b03811660009081526007602052604090205460ff16156114265760405162461bcd60e51b815260206004820152603d60248201527f476f6f64436f6d6d69743a207365656420616c726561647920636c61696d656460448201527f20666f72207468697320476f6f64446f6c6c6172206964656e746974790000006064820152608401610701565b6001600160a01b03821660009081526005602052604090208054610100900460ff16156114955760405162461bcd60e51b815260206004820181905260248201527f476f6f64436f6d6d69743a207365656420616c726561647920636c61696d65646044820152606401610701565b6040516370a0823160e01b8152306004820152678ac7230489e80000907f00000000000000000000000000000000000000000000000000000000000000006001600160a01b0316906370a0823190602401602060405180830381865afa158015611503573d6000803e3d6000fd5b505050506040513d601f19601f8201168201806040525081019061152791906128c8565b101561158d5760405162461bcd60e51b815260206004820152602f60248201527f476f6f64436f6d6d69743a20696e73756666696369656e74207365656420667560448201526e1b991cc81a5b8818dbdb9d1c9858dd608a1b6064820152608401610701565b6001600160a01b038083166000908152600760205260409020805460ff19166001179055815461010161ffff199091161782556115f5907f00000000000000000000000000000000000000000000000000000000000000001684678ac7230489e80000612258565b816001600160a01b0316836001600160a01b03167f8c169bc9b7dd0c871a4faa013507e51738492316d14b3f24e318db38e5aaf7a8678ac7230489e8000060405161164291815260200190565b60405180910390a3505050610d1f600160008051602061299683398151915255565b6001600160a01b038216600090815260066020526040812081908184600181111561169157611691612580565b60018111156116a2576116a2612580565b81526020810191909152604001600020600481015490915060ff166116cb576000915050610c46565b6203f48081600201546116de9190612863565b421015949350505050565b6116f1611fdd565b6001600160a01b0381166117175760405162461bcd60e51b81526004016107019061277f565b6002546040516001600160a01b038084169216907f4ab5be82436d353e61ca18726e984e561f5c1cc7c6d38b29d2553c790434705a90600090a3600280546001600160a01b0319166001600160a01b0392909216919091179055565b6040516316874da360e11b81526001600160a01b03828116600483015260009182916060917f000000000000000000000000000000000000000000000000000000000000000090911690632d0e9b4690602401602060405180830381865afa1580156117e3573d6000803e3d6000fd5b505050506040513d601f19601f8201168201806040525081019061180791906128e1565b91506001600160a01b03821661185857505060408051808201909152601e81527f57616c6c6574206e6f7420476f6f64446f6c6c6172207665726966696564000060208201526000915081906119e8565b6001600160a01b03821660009081526007602052604090205460ff16156118a0576000826040518060600160405280602681526020016129b6602691399250925092506119e8565b6001600160a01b038416600090815260056020526040902054610100900460ff16156118ed57600082604051806060016040528060248152602001612972602491399250925092506119e8565b6040516370a0823160e01b8152306004820152678ac7230489e80000907f00000000000000000000000000000000000000000000000000000000000000006001600160a01b0316906370a0823190602401602060405180830381865afa15801561195b573d6000803e3d6000fd5b505050506040513d601f19601f8201168201806040525081019061197f91906128c8565b10156119c3575060408051808201909152601881527f436f6e747261637420736565642066756e6420656d70747900000000000000006020820152600092506119e8565b50604080518082019091526008815267456c696769626c6560c01b6020820152600192505b9193909250565b6001546001600160a01b03163314611a195760405162461bcd60e51b8152600401610701906127a5565b611a2161200a565b60008411611a715760405162461bcd60e51b815260206004820152601960248201527f476f6f64436f6d6d69743a207a65726f206475726174696f6e000000000000006044820152606401610701565b60008311611ac15760405162461bcd60e51b815260206004820152601760248201527f476f6f64436f6d6d69743a207a65726f20706f696e74730000000000000000006044820152606401610701565b6001600160a01b038616600090815260066020526040812081876001811115611aec57611aec612580565b6001811115611afd57611afd612580565b81526020810191909152604001600020600481015490915060ff16611b345760405162461bcd60e51b8152600401610701906127e7565b611b3e8787612035565b83816001016000828254611b529190612863565b90915550504260028201556001600160a01b038716600090815260056020526040812060018101805491928792611b8a908490612863565b9091555050600281018054906000611ba183612876565b9190505550876001600160a01b03167ffabc7219957f86836f37ef321811a059321db5abc962e4ee877e64cf4f57b13a86868660405161095893929190612927565b6040516370a0823160e01b81523060048201526000907f00000000000000000000000000000000000000000000000000000000000000006001600160a01b0316906370a0823190602401602060405180830381865afa158015611c4a573d6000803e3d6000fd5b505050506040513d601f19601f82011682018060405250810190611c6e91906128c8565b905090565b611c7b611fdd565b611c83612320565b6040516370a0823160e01b81523060048201526000907f00000000000000000000000000000000000000000000000000000000000000006001600160a01b0316906370a0823190602401602060405180830381865afa158015611cea573d6000803e3d6000fd5b505050506040513d601f19601f82011682018060405250810190611d0e91906128c8565b90508015610d0c57610d0c611d2b6000546001600160a01b031690565b6001600160a01b037f0000000000000000000000000000000000000000000000000000000000000000169083612258565b6001546001600160a01b03163314611d865760405162461bcd60e51b8152600401610701906127a5565b611d8e61200a565b6001600160a01b038416600090815260066020526040812081856001811115611db957611db9612580565b6001811115611dca57611dca612580565b81526020810191909152604001600020600481015490915060ff16611e015760405162461bcd60e51b8152600401610701906127e7565b6203f4808160020154611e149190612863565b421015611e6d5760405162461bcd60e51b815260206004820152602160248201527f476f6f64436f6d6d69743a2075736572206e6f7420696e6163746976652079656044820152601d60fa1b6064820152608401610701565b80546000612710611e806117708461288f565b611e8a91906128a6565b90506000612710611e9d610fa08561288f565b611ea791906128a6565b60048501805460ff191690556000808655600186015590508115611eff57600354611eff906001600160a01b037f00000000000000000000000000000000000000000000000000000000000000008116911684612258565b8015611f3f57600254611f3f906001600160a01b037f00000000000000000000000000000000000000000000000000000000000000008116911683612258565b866001811115611f5157611f51612580565b886001600160a01b03167f02466d8e608b2347d97a1cb2055eda5c2e0e8b7a49c961ac6ea0db59f404f6ce88888686604051611f90949392919061294a565b60405180910390a35050505050505050565b611faa611fdd565b6001600160a01b038116611fd457604051631e4fbdf760e01b815260006004820152602401610701565b610d0c8161228d565b6000546001600160a01b03163314610d1f5760405163118cdaa760e01b8152336004820152602401610701565b600054600160a01b900460ff1615610d1f5760405163d93c066560e01b815260040160405180910390fd5b6001600160a01b03821660009081526006602052604081208183600181111561206057612060612580565b600181111561207157612071612580565b81526020019081526020016000209050806001015460000361209257505050565b6000620151808260020154426120a89190612850565b6120b291906128a6565b9050806000036120c25750505050565b600182015460005b82811080156120d95750600082115b1561211b5760006127106120ef610fa08561288f565b6120f991906128a6565b90506121058184612850565b925050808061211390612876565b9150506120ca565b50600081846001015461212e9190612850565b905080600460008282546121429190612863565b90915550506001808501839055859081111561216057612160612580565b866001600160a01b03167fb42170905da5bd047812a1c53083a2ea2628334206fd15eff4c82745bd857e378360405161219b91815260200190565b60405180910390a3505050505050565b6121b361234a565b600260008051602061299683398151915255565b6121d584848484600161237a565b6121fd57604051635274afe760e01b81526001600160a01b0385166004820152602401610701565b50505050565b61220b612320565b6000805460ff60a01b191690557f5db9ee0a495bf2e6ff9c91a7834c1ba4fdd244a5e8aa4e537bd38aeae4b073aa335b6040516001600160a01b03909116815260200160405180910390a1565b61226583838360016123ec565b610ba157604051635274afe760e01b81526001600160a01b0384166004820152602401610701565b600080546001600160a01b038381166001600160a01b0319831681178455604051919092169283917f8be0079c531659141344cd1fd0a4f28419497f9722a3daafe3b4186f6b6457e09190a35050565b6122e561200a565b6000805460ff60a01b1916600160a01b1790557f62e78cea01bee320cd4e420270b5ea74000d11b0c9f74754ebdbfc544b05a25861223b3390565b600054600160a01b900460ff16610d1f57604051638dfc202b60e01b815260040160405180910390fd5b60008051602061299683398151915254600203610d1f57604051633ee5aeb560e01b815260040160405180910390fd5b6040516323b872dd60e01b60008181526001600160a01b038781166004528616602452604485905291602083606481808c5af1925060016000511483166123da5783831516156123cd573d6000823e3d81fd5b6000883b113d1516831692505b60405250600060605295945050505050565b60405163a9059cbb60e01b60008181526001600160a01b038616600452602485905291602083604481808b5af192506001600051148316612446578383151615612439573d6000823e3d81fd5b6000873b113d1516831692505b60405250949350505050565b6001600160a01b0381168114610d0c57600080fd5b60006020828403121561247957600080fd5b813561248481612452565b9392505050565b80356002811061249a57600080fd5b919050565b600080604083850312156124b257600080fd5b82356124bd81612452565b91506124cb6020840161248b565b90509250929050565b803560ff8116811461249a57600080fd5b60008060008060008060c087890312156124fe57600080fd5b863561250981612452565b95506125176020880161248b565b9450612525604088016124d4565b9350612533606088016124d4565b92506080870135915060a087013590509295509295509295565b60008060006060848603121561256257600080fd5b61256b8461248b565b95602085013595506040909401359392505050565b634e487b7160e01b600052602160045260246000fd5b60208101600583106125b857634e487b7160e01b600052602160045260246000fd5b91905290565b6000602082840312156125d057600080fd5b5035919050565b6000602082840312156125e957600080fd5b6124848261248b565b83151581526000602060018060a01b0385168184015260606040840152835180606085015260005b818110156126365785810183015185820160800152820161261a565b506000608082860101526080601f19601f83011685010192505050949350505050565b60008083601f84011261266b57600080fd5b50813567ffffffffffffffff81111561268357600080fd5b60208301915083602082850101111561269b57600080fd5b9250929050565b60008060008060008060a087890312156126bb57600080fd5b86356126c681612452565b95506126d46020880161248b565b94506040870135935060608701359250608087013567ffffffffffffffff8111156126fe57600080fd5b61270a89828a01612659565b979a9699509497509295939492505050565b6000806000806060858703121561273257600080fd5b843561273d81612452565b935061274b6020860161248b565b9250604085013567ffffffffffffffff81111561276757600080fd5b61277387828801612659565b95989497509550505050565b6020808252600c908201526b5a65726f206164647265737360a01b604082015260600190565b60208082526022908201527f476f6f64436f6d6d69743a2063616c6c6572206973206e6f742076657269666960408201526132b960f11b606082015260800190565b6020808252601b908201527f476f6f64436f6d6d69743a206e6f20616374697665207374616b650000000000604082015260600190565b634e487b7160e01b600052601160045260246000fd5b6000600160ff1b82016128495761284961281e565b5060000390565b81810381811115610c4657610c4661281e565b80820180821115610c4657610c4661281e565b6000600182016128885761288861281e565b5060010190565b8082028115828204841417610c4657610c4661281e565b6000826128c357634e487b7160e01b600052601260045260246000fd5b500490565b6000602082840312156128da57600080fd5b5051919050565b6000602082840312156128f357600080fd5b815161248481612452565b81835281816020850137506000828201602090810191909152601f909101601f19169091010190565b8381526040602082015260006129416040830184866128fe565b95945050505050565b60608152600061295e6060830186886128fe565b602083019490945250604001529291505056fe5365656420616c726561647920636c61696d6564206279207468697320616464726573739b779b17422d0df92223018b32b4d1fa46e071723d6817e2486d003becc55f005365656420616c726561647920636c61696d656420666f722074686973206964656e74697479a26469706673582212204c8c7188721e86b3be4c758844c14f2c1d689e4d65f6a69020225bdf6659d20564736f6c63430008140033",
  "linkReferences": {},
  "deployedLinkReferences": {}
}